{
  "contractName": "BudgetContract",
  "abi": [
    {
      "anonymous": false,
      "inputs": [
        {
          "indexed": false,
          "internalType": "bytes32",
          "name": "proposalId",
          "type": "bytes32"
        },
        {
          "indexed": false,
          "internalType": "bytes32",
          "name": "budgetId",
          "type": "bytes32"
        },
        {
          "indexed": false,
          "internalType": "string",
          "name": "cid",
          "type": "string"
        }
      ],
      "name": "BudgetCreatedOrUpdated",
      "type": "event"
    },
    {
      "inputs": [
        {
          "internalType": "bytes32",
          "name": "",
          "type": "bytes32"
        }
      ],
      "name": "budgetToCid",
      "outputs": [
        {
          "internalType": "bytes32",
          "name": "",
          "type": "bytes32"
        }
      ],
      "stateMutability": "view",
      "type": "function",
      "constant": true
    },
    {
      "inputs": [
        {
          "internalType": "bytes32",
          "name": "",
          "type": "bytes32"
        }
      ],
      "name": "budgetsMap",
      "outputs": [
        {
          "internalType": "bytes32",
          "name": "proposalId",
          "type": "bytes32"
        },
        {
          "internalType": "bytes32",
          "name": "budgetId",
          "type": "bytes32"
        },
        {
          "internalType": "string",
          "name": "cid",
          "type": "string"
        }
      ],
      "stateMutability": "view",
      "type": "function",
      "constant": true
    },
    {
      "inputs": [
        {
          "internalType": "bytes32",
          "name": "",
          "type": "bytes32"
        },
        {
          "internalType": "uint256",
          "name": "",
          "type": "uint256"
        }
      ],
      "name": "proposalToBudget",
      "outputs": [
        {
          "internalType": "bytes32",
          "name": "proposalId",
          "type": "bytes32"
        },
        {
          "internalType": "bytes32",
          "name": "budgetId",
          "type": "bytes32"
        },
        {
          "internalType": "string",
          "name": "cid",
          "type": "string"
        }
      ],
      "stateMutability": "view",
      "type": "function",
      "constant": true
    },
    {
      "inputs": [
        {
          "internalType": "bytes32",
          "name": "_proposalId",
          "type": "bytes32"
        },
        {
          "internalType": "bytes32",
          "name": "_budgetId",
          "type": "bytes32"
        },
        {
          "internalType": "string",
          "name": "_cid",
          "type": "string"
        }
      ],
      "name": "createBudget",
      "outputs": [],
      "stateMutability": "nonpayable",
      "type": "function"
    },
    {
      "inputs": [
        {
          "internalType": "bytes32",
          "name": "_budgetId",
          "type": "bytes32"
        }
      ],
      "name": "getBudget",
      "outputs": [
        {
          "internalType": "string",
          "name": "",
          "type": "string"
        }
      ],
      "stateMutability": "view",
      "type": "function",
      "constant": true
    },
    {
      "inputs": [
        {
          "internalType": "bytes32",
          "name": "_budgetId",
          "type": "bytes32"
        },
        {
          "internalType": "bytes32",
          "name": "_cid",
          "type": "bytes32"
        }
      ],
      "name": "setBudget",
      "outputs": [],
      "stateMutability": "nonpayable",
      "type": "function"
    },
    {
      "inputs": [
        {
          "internalType": "bytes32",
          "name": "_budgetId",
          "type": "bytes32"
        }
      ],
      "name": "getBudgetToCid",
      "outputs": [
        {
          "internalType": "bytes32",
          "name": "",
          "type": "bytes32"
        }
      ],
      "stateMutability": "view",
      "type": "function",
      "constant": true
    },
    {
      "inputs": [
        {
          "internalType": "bytes32",
          "name": "_proposalId",
          "type": "bytes32"
        }
      ],
      "name": "getCidsFromProposal",
      "outputs": [
        {
          "internalType": "string[]",
          "name": "",
          "type": "string[]"
        }
      ],
      "stateMutability": "view",
      "type": "function",
      "constant": true
    }
  ],
  "bytecode": "0x608060405234801561001057600080fd5b506110ad806100206000396000f3fe608060405234801561001057600080fd5b50600436106100885760003560e01c806388b7c48d1161005b57806388b7c48d1461015157806399be4d971461016d578063b6f8b5ea1461019d578063f1487a5e146101cd57610088565b80631ef7287b1461008d578063546887a3146100bf57806357ff1a9c146100ef57806363c0c8f21461011f575b600080fd5b6100a760048036038101906100a2919061075c565b6101e9565b6040516100b69392919061083b565b60405180910390f35b6100d960048036038101906100d49190610879565b6102b8565b6040516100e691906108a6565b60405180910390f35b61010960048036038101906101049190610879565b61035f565b60405161011691906108c8565b60405180910390f35b61013960048036038101906101349190610879565b61037c565b6040516101489392919061083b565b60405180910390f35b61016b600480360381019061016691906108e3565b61042e565b005b61018760048036038101906101829190610879565b61044a565b6040516101949190610a2f565b60405180910390f35b6101b760048036038101906101b29190610879565b6105b1565b6040516101c491906108c8565b60405180910390f35b6101e760048036038101906101e29190610b86565b6105c9565b005b6001602052816000526040600020818154811061020557600080fd5b90600052602060002090600302016000915091505080600001549080600101549080600201805461023590610c24565b80601f016020809104026020016040519081016040528092919081815260200182805461026190610c24565b80156102ae5780601f10610283576101008083540402835291602001916102ae565b820191906000526020600020905b81548152906001019060200180831161029157829003601f168201915b5050505050905083565b606060008083815260200190815260200160002060020180546102da90610c24565b80601f016020809104026020016040519081016040528092919081815260200182805461030690610c24565b80156103535780601f1061032857610100808354040283529160200191610353565b820191906000526020600020905b81548152906001019060200180831161033657829003601f168201915b50505050509050919050565b600060026000838152602001908152602001600020549050919050565b60006020528060005260406000206000915090508060000154908060010154908060020180546103ab90610c24565b80601f01602080910402602001604051908101604052809291908181526020018280546103d790610c24565b80156104245780601f106103f957610100808354040283529160200191610424565b820191906000526020600020905b81548152906001019060200180831161040757829003601f168201915b5050505050905083565b8060026000848152602001908152602001600020819055505050565b606060006001600084815260200190815260200160002090506000818054905067ffffffffffffffff81111561048357610482610a5b565b5b6040519080825280602002602001820160405280156104b657816020015b60608152602001906001900390816104a15790505b50905060005b82805490508110156105a6578281815481106104db576104da610c55565b5b906000526020600020906003020160020180546104f790610c24565b80601f016020809104026020016040519081016040528092919081815260200182805461052390610c24565b80156105705780601f1061054557610100808354040283529160200191610570565b820191906000526020600020905b81548152906001019060200180831161055357829003601f168201915b505050505082828151811061058857610587610c55565b5b6020026020010181905250808061059e90610cb3565b9150506104bc565b508092505050919050565b60026020528060005260406000206000915090505481565b6040518060600160405280848152602001838152602001828152506000808481526020019081526020016000206000820151816000015560208201518160010155604082015181600201908161061f9190610ea7565b509050506001600084815260200190815260200160002060008084815260200190815260200160002090806001815401808255809150506001900390600052602060002090600302016000909190919091506000820154816000015560018201548160010155600282018160020190816106999190610f8f565b5050507fe18a493ec851210fd2626fc8c3c5845fb8324691223d2b904fa3db22b9952fc08383836040516106cf9392919061083b565b60405180910390a1505050565b6000604051905090565b600080fd5b600080fd5b6000819050919050565b610703816106f0565b811461070e57600080fd5b50565b600081359050610720816106fa565b92915050565b6000819050919050565b61073981610726565b811461074457600080fd5b50565b60008135905061075681610730565b92915050565b60008060408385031215610773576107726106e6565b5b600061078185828601610711565b925050602061079285828601610747565b9150509250929050565b6107a5816106f0565b82525050565b600081519050919050565b600082825260208201905092915050565b60005b838110156107e55780820151818401526020810190506107ca565b60008484015250505050565b6000601f19601f8301169050919050565b600061080d826107ab565b61081781856107b6565b93506108278185602086016107c7565b610830816107f1565b840191505092915050565b6000606082019050610850600083018661079c565b61085d602083018561079c565b818103604083015261086f8184610802565b9050949350505050565b60006020828403121561088f5761088e6106e6565b5b600061089d84828501610711565b91505092915050565b600060208201905081810360008301526108c08184610802565b905092915050565b60006020820190506108dd600083018461079c565b92915050565b600080604083850312156108fa576108f96106e6565b5b600061090885828601610711565b925050602061091985828601610711565b9150509250929050565b600081519050919050565b600082825260208201905092915050565b6000819050602082019050919050565b600082825260208201905092915050565b600061096b826107ab565b610975818561094f565b93506109858185602086016107c7565b61098e816107f1565b840191505092915050565b60006109a58383610960565b905092915050565b6000602082019050919050565b60006109c582610923565b6109cf818561092e565b9350836020820285016109e18561093f565b8060005b85811015610a1d57848403895281516109fe8582610999565b9450610a09836109ad565b925060208a019950506001810190506109e5565b50829750879550505050505092915050565b60006020820190508181036000830152610a4981846109ba565b905092915050565b600080fd5b600080fd5b7f4e487b7100000000000000000000000000000000000000000000000000000000600052604160045260246000fd5b610a93826107f1565b810181811067ffffffffffffffff82111715610ab257610ab1610a5b565b5b80604052505050565b6000610ac56106dc565b9050610ad18282610a8a565b919050565b600067ffffffffffffffff821115610af157610af0610a5b565b5b610afa826107f1565b9050602081019050919050565b82818337600083830152505050565b6000610b29610b2484610ad6565b610abb565b905082815260208101848484011115610b4557610b44610a56565b5b610b50848285610b07565b509392505050565b600082601f830112610b6d57610b6c610a51565b5b8135610b7d848260208601610b16565b91505092915050565b600080600060608486031215610b9f57610b9e6106e6565b5b6000610bad86828701610711565b9350506020610bbe86828701610711565b925050604084013567ffffffffffffffff811115610bdf57610bde6106eb565b5b610beb86828701610b58565b9150509250925092565b7f4e487b7100000000000000000000000000000000000000000000000000000000600052602260045260246000fd5b60006002820490506001821680610c3c57607f821691505b602082108103610c4f57610c4e610bf5565b5b50919050565b7f4e487b7100000000000000000000000000000000000000000000000000000000600052603260045260246000fd5b7f4e487b7100000000000000000000000000000000000000000000000000000000600052601160045260246000fd5b6000610cbe82610726565b91507fffffffffffffffffffffffffffffffffffffffffffffffffffffffffffffffff8203610cf057610cef610c84565b5b600182019050919050565b60008190508160005260206000209050919050565b60006020601f8301049050919050565b600082821b905092915050565b600060088302610d5d7fffffffffffffffffffffffffffffffffffffffffffffffffffffffffffffffff82610d20565b610d678683610d20565b95508019841693508086168417925050509392505050565b6000819050919050565b6000610da4610d9f610d9a84610726565b610d7f565b610726565b9050919050565b6000819050919050565b610dbe83610d89565b610dd2610dca82610dab565b848454610d2d565b825550505050565b600090565b610de7610dda565b610df2818484610db5565b505050565b5b81811015610e1657610e0b600082610ddf565b600181019050610df8565b5050565b601f821115610e5b57610e2c81610cfb565b610e3584610d10565b81016020851015610e44578190505b610e58610e5085610d10565b830182610df7565b50505b505050565b600082821c905092915050565b6000610e7e60001984600802610e60565b1980831691505092915050565b6000610e978383610e6d565b9150826002028217905092915050565b610eb0826107ab565b67ffffffffffffffff811115610ec957610ec8610a5b565b5b610ed38254610c24565b610ede828285610e1a565b600060209050601f831160018114610f115760008415610eff578287015190505b610f098582610e8b565b865550610f71565b601f198416610f1f86610cfb565b60005b82811015610f4757848901518255600182019150602085019450602081019050610f22565b86831015610f645784890151610f60601f891682610e6d565b8355505b6001600288020188555050505b505050505050565b600081549050610f8881610c24565b9050919050565b818103610f9d575050611075565b610fa682610f79565b67ffffffffffffffff811115610fbf57610fbe610a5b565b5b610fc98254610c24565b610fd4828285610e1a565b6000601f8311600181146110035760008415610ff1578287015490505b610ffb8582610e8b565b86555061106e565b601f19841661101187610cfb565b965061101c86610cfb565b60005b828110156110445784890154825560018201915060018501945060208101905061101f565b86831015611061578489015461105d601f891682610e6d565b8355505b6001600288020188555050505b5050505050505b56fea26469706673582212201d5ed26dc3b2177de7ce4520ada5e013b83ffb36ad76ec2ed3ff9e62b76a23fe64736f6c63430008130033",
  "immutableReferences": {},
  "source": "//SPDX-License-Identifier: GPL-3.0\npragma solidity ^0.8.0;\n\ncontract BudgetContract{\n    event BudgetCreatedOrUpdated(bytes32 proposalId, bytes32 budgetId, string cid);\n\n    struct Budget{\n        bytes32 proposalId;\n        bytes32 budgetId;\n        string cid;\n    }\n\n    // Budget[] public budgets;\n    mapping(bytes32 => Budget) public budgetsMap;\n    mapping(bytes32 => Budget[]) public proposalToBudget;\n    mapping(bytes32 => bytes32) public budgetToCid;\n\n    function createBudget(bytes32 _proposalId, bytes32 _budgetId, string memory _cid) public {\n        // budgets.push(Budget(_proposalId, _budgetId, _cid));\n        budgetsMap[_budgetId] = Budget(_proposalId, _budgetId, _cid);\n        proposalToBudget[_proposalId].push(budgetsMap[_budgetId]);\n        emit BudgetCreatedOrUpdated(_proposalId, _budgetId, _cid);\n    }\n\n\n    function getBudget(bytes32 _budgetId) public view returns(string memory) {\n        return budgetsMap[_budgetId].cid;\n    }\n\n    function setBudget(bytes32 _budgetId, bytes32 _cid) public{\n        budgetToCid[_budgetId] = _cid;\n    }\n    function getBudgetToCid(bytes32 _budgetId) public view returns(bytes32) {\n        return budgetToCid[_budgetId];\n    }\n\n    function getCidsFromProposal(bytes32 _proposalId) public view returns (string[] memory) {\n        Budget[] storage budgets = proposalToBudget[_proposalId];\n        string[] memory cids = new string[](budgets.length);\n\n        for (uint256 i = 0; i < budgets.length; i++) {\n            cids[i] = budgets[i].cid;\n        }\n\n        return cids;\n    }\n}",
  "sourcePath": "/Users/manjindersingh/Desktop/Prototype/contracts/BudgetContract.sol",
  "compiler": {
    "name": "solc",
    "version": "0.8.19+commit.7dd6d404.Emscripten.clang"
  },
  "schemaVersion": "3.4.13",
  "updatedAt": "2023-07-13T06:43:33.861Z",
  "networkType": "ethereum",
  "devdoc": {
    "kind": "dev",
    "methods": {},
    "version": 1
  },
  "userdoc": {
    "kind": "user",
    "methods": {},
    "version": 1
  }
}