{
  "contractName": "BudgetContract",
  "abi": [
    {
      "anonymous": false,
      "inputs": [
        {
          "indexed": false,
          "internalType": "bytes32",
          "name": "proposalId",
          "type": "bytes32"
        },
        {
          "indexed": false,
          "internalType": "bytes32",
          "name": "budgetId",
          "type": "bytes32"
        },
        {
          "indexed": false,
          "internalType": "string",
          "name": "cid",
          "type": "string"
        }
      ],
      "name": "BudgetCreatedOrUpdated",
      "type": "event"
    },
    {
      "inputs": [
        {
          "internalType": "bytes32",
          "name": "",
          "type": "bytes32"
        }
      ],
      "name": "budgetToCid",
      "outputs": [
        {
          "internalType": "bytes32",
          "name": "",
          "type": "bytes32"
        }
      ],
      "stateMutability": "view",
      "type": "function",
      "constant": true
    },
    {
      "inputs": [
        {
          "internalType": "bytes32",
          "name": "",
          "type": "bytes32"
        },
        {
          "internalType": "uint256",
          "name": "",
          "type": "uint256"
        }
      ],
      "name": "budgetToInvoices",
      "outputs": [
        {
          "internalType": "string",
          "name": "",
          "type": "string"
        }
      ],
      "stateMutability": "view",
      "type": "function",
      "constant": true
    },
    {
      "inputs": [
        {
          "internalType": "bytes32",
          "name": "",
          "type": "bytes32"
        }
      ],
      "name": "budgetsMap",
      "outputs": [
        {
          "internalType": "bytes32",
          "name": "proposalId",
          "type": "bytes32"
        },
        {
          "internalType": "bytes32",
          "name": "budgetId",
          "type": "bytes32"
        },
        {
          "internalType": "string",
          "name": "cid",
          "type": "string"
        }
      ],
      "stateMutability": "view",
      "type": "function",
      "constant": true
    },
    {
      "inputs": [
        {
          "internalType": "bytes32",
          "name": "",
          "type": "bytes32"
        },
        {
          "internalType": "uint256",
          "name": "",
          "type": "uint256"
        }
      ],
      "name": "proposalToBudget",
      "outputs": [
        {
          "internalType": "bytes32",
          "name": "proposalId",
          "type": "bytes32"
        },
        {
          "internalType": "bytes32",
          "name": "budgetId",
          "type": "bytes32"
        },
        {
          "internalType": "string",
          "name": "cid",
          "type": "string"
        }
      ],
      "stateMutability": "view",
      "type": "function",
      "constant": true
    },
    {
      "inputs": [
        {
          "internalType": "bytes32",
          "name": "_proposalId",
          "type": "bytes32"
        },
        {
          "internalType": "bytes32",
          "name": "_budgetId",
          "type": "bytes32"
        },
        {
          "internalType": "string",
          "name": "_cid",
          "type": "string"
        }
      ],
      "name": "createBudget",
      "outputs": [],
      "stateMutability": "nonpayable",
      "type": "function"
    },
    {
      "inputs": [
        {
          "internalType": "bytes32",
          "name": "_budgetId",
          "type": "bytes32"
        },
        {
          "internalType": "string",
          "name": "_cid",
          "type": "string"
        }
      ],
      "name": "addInvoiceToBudget",
      "outputs": [],
      "stateMutability": "nonpayable",
      "type": "function"
    },
    {
      "inputs": [
        {
          "internalType": "bytes32",
          "name": "_budgetId",
          "type": "bytes32"
        }
      ],
      "name": "getInvoicesByBudget",
      "outputs": [
        {
          "internalType": "string[]",
          "name": "",
          "type": "string[]"
        }
      ],
      "stateMutability": "view",
      "type": "function",
      "constant": true
    },
    {
      "inputs": [
        {
          "internalType": "bytes32",
          "name": "_budgetId",
          "type": "bytes32"
        }
      ],
      "name": "getBudget",
      "outputs": [
        {
          "internalType": "string",
          "name": "",
          "type": "string"
        }
      ],
      "stateMutability": "view",
      "type": "function",
      "constant": true
    },
    {
      "inputs": [
        {
          "internalType": "bytes32",
          "name": "_budgetId",
          "type": "bytes32"
        },
        {
          "internalType": "bytes32",
          "name": "_cid",
          "type": "bytes32"
        }
      ],
      "name": "setBudget",
      "outputs": [],
      "stateMutability": "nonpayable",
      "type": "function"
    },
    {
      "inputs": [
        {
          "internalType": "bytes32",
          "name": "_budgetId",
          "type": "bytes32"
        }
      ],
      "name": "getBudgetToCid",
      "outputs": [
        {
          "internalType": "bytes32",
          "name": "",
          "type": "bytes32"
        }
      ],
      "stateMutability": "view",
      "type": "function",
      "constant": true
    },
    {
      "inputs": [
        {
          "internalType": "bytes32",
          "name": "_proposalId",
          "type": "bytes32"
        }
      ],
      "name": "getCidsFromProposal",
      "outputs": [
        {
          "internalType": "string[]",
          "name": "",
          "type": "string[]"
        }
      ],
      "stateMutability": "view",
      "type": "function",
      "constant": true
    }
  ],
  "bytecode": "0x608060405234801561001057600080fd5b50611395806100206000396000f3fe608060405234801561001057600080fd5b50600436106100a95760003560e01c806388b7c48d1161007157806388b7c48d146101a257806399be4d97146101be578063b6f8b5ea146101ee578063d91fe5e21461021e578063f1487a5e1461024e578063fd3b344c1461026a576100a9565b8063191ea990146100ae5780631ef7287b146100de578063546887a31461011057806357ff1a9c1461014057806363c0c8f214610170575b600080fd5b6100c860048036038101906100c391906109b2565b610286565b6040516100d59190610b31565b60405180910390f35b6100f860048036038101906100f39190610b89565b610372565b60405161010793929190610c22565b60405180910390f35b61012a600480360381019061012591906109b2565b610441565b6040516101379190610c60565b60405180910390f35b61015a600480360381019061015591906109b2565b6104e8565b6040516101679190610c82565b60405180910390f35b61018a600480360381019061018591906109b2565b610505565b60405161019993929190610c22565b60405180910390f35b6101bc60048036038101906101b79190610c9d565b6105b7565b005b6101d860048036038101906101d391906109b2565b6105d3565b6040516101e59190610b31565b60405180910390f35b610208600480360381019061020391906109b2565b61073a565b6040516102159190610c82565b60405180910390f35b61023860048036038101906102339190610b89565b610752565b6040516102459190610c60565b60405180910390f35b61026860048036038101906102639190610e12565b61080b565b005b610284600480360381019061027f9190610e81565b61091e565b005b606060036000838152602001908152602001600020805480602002602001604051908101604052809291908181526020016000905b828210156103675783829060005260206000200180546102da90610f0c565b80601f016020809104026020016040519081016040528092919081815260200182805461030690610f0c565b80156103535780601f1061032857610100808354040283529160200191610353565b820191906000526020600020905b81548152906001019060200180831161033657829003601f168201915b5050505050815260200190600101906102bb565b505050509050919050565b6001602052816000526040600020818154811061038e57600080fd5b9060005260206000209060030201600091509150508060000154908060010154908060020180546103be90610f0c565b80601f01602080910402602001604051908101604052809291908181526020018280546103ea90610f0c565b80156104375780601f1061040c57610100808354040283529160200191610437565b820191906000526020600020905b81548152906001019060200180831161041a57829003601f168201915b5050505050905083565b6060600080838152602001908152602001600020600201805461046390610f0c565b80601f016020809104026020016040519081016040528092919081815260200182805461048f90610f0c565b80156104dc5780601f106104b1576101008083540402835291602001916104dc565b820191906000526020600020905b8154815290600101906020018083116104bf57829003601f168201915b50505050509050919050565b600060026000838152602001908152602001600020549050919050565b600060205280600052604060002060009150905080600001549080600101549080600201805461053490610f0c565b80601f016020809104026020016040519081016040528092919081815260200182805461056090610f0c565b80156105ad5780601f10610582576101008083540402835291602001916105ad565b820191906000526020600020905b81548152906001019060200180831161059057829003601f168201915b5050505050905083565b8060026000848152602001908152602001600020819055505050565b606060006001600084815260200190815260200160002090506000818054905067ffffffffffffffff81111561060c5761060b610ce7565b5b60405190808252806020026020018201604052801561063f57816020015b606081526020019060019003908161062a5790505b50905060005b828054905081101561072f5782818154811061066457610663610f3d565b5b9060005260206000209060030201600201805461068090610f0c565b80601f01602080910402602001604051908101604052809291908181526020018280546106ac90610f0c565b80156106f95780601f106106ce576101008083540402835291602001916106f9565b820191906000526020600020905b8154815290600101906020018083116106dc57829003601f168201915b505050505082828151811061071157610710610f3d565b5b6020026020010181905250808061072790610f9b565b915050610645565b508092505050919050565b60026020528060005260406000206000915090505481565b6003602052816000526040600020818154811061076e57600080fd5b9060005260206000200160009150915050805461078a90610f0c565b80601f01602080910402602001604051908101604052809291908181526020018280546107b690610f0c565b80156108035780601f106107d857610100808354040283529160200191610803565b820191906000526020600020905b8154815290600101906020018083116107e657829003601f168201915b505050505081565b60405180606001604052808481526020018381526020018281525060008084815260200190815260200160002060008201518160000155602082015181600101556040820151816002019081610861919061118f565b509050506001600084815260200190815260200160002060008084815260200190815260200160002090806001815401808255809150506001900390600052602060002090600302016000909190919091506000820154816000015560018201548160010155600282018160020190816108db9190611277565b5050507fe18a493ec851210fd2626fc8c3c5845fb8324691223d2b904fa3db22b9952fc083838360405161091193929190610c22565b60405180910390a1505050565b6003600083815260200190815260200160002081908060018154018082558091505060019003906000526020600020016000909190919091509081610963919061118f565b505050565b6000604051905090565b600080fd5b600080fd5b6000819050919050565b61098f8161097c565b811461099a57600080fd5b50565b6000813590506109ac81610986565b92915050565b6000602082840312156109c8576109c7610972565b5b60006109d68482850161099d565b91505092915050565b600081519050919050565b600082825260208201905092915050565b6000819050602082019050919050565b600081519050919050565b600082825260208201905092915050565b60005b83811015610a45578082015181840152602081019050610a2a565b60008484015250505050565b6000601f19601f8301169050919050565b6000610a6d82610a0b565b610a778185610a16565b9350610a87818560208601610a27565b610a9081610a51565b840191505092915050565b6000610aa78383610a62565b905092915050565b6000602082019050919050565b6000610ac7826109df565b610ad181856109ea565b935083602082028501610ae3856109fb565b8060005b85811015610b1f5784840389528151610b008582610a9b565b9450610b0b83610aaf565b925060208a01995050600181019050610ae7565b50829750879550505050505092915050565b60006020820190508181036000830152610b4b8184610abc565b905092915050565b6000819050919050565b610b6681610b53565b8114610b7157600080fd5b50565b600081359050610b8381610b5d565b92915050565b60008060408385031215610ba057610b9f610972565b5b6000610bae8582860161099d565b9250506020610bbf85828601610b74565b9150509250929050565b610bd28161097c565b82525050565b600082825260208201905092915050565b6000610bf482610a0b565b610bfe8185610bd8565b9350610c0e818560208601610a27565b610c1781610a51565b840191505092915050565b6000606082019050610c376000830186610bc9565b610c446020830185610bc9565b8181036040830152610c568184610be9565b9050949350505050565b60006020820190508181036000830152610c7a8184610be9565b905092915050565b6000602082019050610c976000830184610bc9565b92915050565b60008060408385031215610cb457610cb3610972565b5b6000610cc28582860161099d565b9250506020610cd38582860161099d565b9150509250929050565b600080fd5b600080fd5b7f4e487b7100000000000000000000000000000000000000000000000000000000600052604160045260246000fd5b610d1f82610a51565b810181811067ffffffffffffffff82111715610d3e57610d3d610ce7565b5b80604052505050565b6000610d51610968565b9050610d5d8282610d16565b919050565b600067ffffffffffffffff821115610d7d57610d7c610ce7565b5b610d8682610a51565b9050602081019050919050565b82818337600083830152505050565b6000610db5610db084610d62565b610d47565b905082815260208101848484011115610dd157610dd0610ce2565b5b610ddc848285610d93565b509392505050565b600082601f830112610df957610df8610cdd565b5b8135610e09848260208601610da2565b91505092915050565b600080600060608486031215610e2b57610e2a610972565b5b6000610e398682870161099d565b9350506020610e4a8682870161099d565b925050604084013567ffffffffffffffff811115610e6b57610e6a610977565b5b610e7786828701610de4565b9150509250925092565b60008060408385031215610e9857610e97610972565b5b6000610ea68582860161099d565b925050602083013567ffffffffffffffff811115610ec757610ec6610977565b5b610ed385828601610de4565b9150509250929050565b7f4e487b7100000000000000000000000000000000000000000000000000000000600052602260045260246000fd5b60006002820490506001821680610f2457607f821691505b602082108103610f3757610f36610edd565b5b50919050565b7f4e487b7100000000000000000000000000000000000000000000000000000000600052603260045260246000fd5b7f4e487b7100000000000000000000000000000000000000000000000000000000600052601160045260246000fd5b6000610fa682610b53565b91507fffffffffffffffffffffffffffffffffffffffffffffffffffffffffffffffff8203610fd857610fd7610f6c565b5b600182019050919050565b60008190508160005260206000209050919050565b60006020601f8301049050919050565b600082821b905092915050565b6000600883026110457fffffffffffffffffffffffffffffffffffffffffffffffffffffffffffffffff82611008565b61104f8683611008565b95508019841693508086168417925050509392505050565b6000819050919050565b600061108c61108761108284610b53565b611067565b610b53565b9050919050565b6000819050919050565b6110a683611071565b6110ba6110b282611093565b848454611015565b825550505050565b600090565b6110cf6110c2565b6110da81848461109d565b505050565b5b818110156110fe576110f36000826110c7565b6001810190506110e0565b5050565b601f8211156111435761111481610fe3565b61111d84610ff8565b8101602085101561112c578190505b61114061113885610ff8565b8301826110df565b50505b505050565b600082821c905092915050565b600061116660001984600802611148565b1980831691505092915050565b600061117f8383611155565b9150826002028217905092915050565b61119882610a0b565b67ffffffffffffffff8111156111b1576111b0610ce7565b5b6111bb8254610f0c565b6111c6828285611102565b600060209050601f8311600181146111f957600084156111e7578287015190505b6111f18582611173565b865550611259565b601f19841661120786610fe3565b60005b8281101561122f5784890151825560018201915060208501945060208101905061120a565b8683101561124c5784890151611248601f891682611155565b8355505b6001600288020188555050505b505050505050565b60008154905061127081610f0c565b9050919050565b81810361128557505061135d565b61128e82611261565b67ffffffffffffffff8111156112a7576112a6610ce7565b5b6112b18254610f0c565b6112bc828285611102565b6000601f8311600181146112eb57600084156112d9578287015490505b6112e38582611173565b865550611356565b601f1984166112f987610fe3565b965061130486610fe3565b60005b8281101561132c57848901548255600182019150600185019450602081019050611307565b868310156113495784890154611345601f891682611155565b8355505b6001600288020188555050505b5050505050505b56fea2646970667358221220d153c58b5d3e1baa3e18dbd5b5a22aa7163fc9345753cd224f527dcbeb7d8e4164736f6c63430008130033",
  "immutableReferences": {},
  "source": "//SPDX-License-Identifier: GPL-3.0\npragma solidity ^0.8.0;\n\ncontract BudgetContract{\n    event BudgetCreatedOrUpdated(bytes32 proposalId, bytes32 budgetId, string cid);\n\n    struct Budget{\n        bytes32 proposalId;\n        bytes32 budgetId;\n        string cid;\n    }\n\n    // Budget[] public budgets;\n    mapping(bytes32 => Budget) public budgetsMap;\n    mapping(bytes32 => Budget[]) public proposalToBudget;\n    mapping(bytes32 => bytes32) public budgetToCid;\n    mapping(bytes32 => string[]) public budgetToInvoices;\n\n\n    function createBudget(bytes32 _proposalId, bytes32 _budgetId, string memory _cid) public {\n        // budgets.push(Budget(_proposalId, _budgetId, _cid));\n        budgetsMap[_budgetId] = Budget(_proposalId, _budgetId, _cid);\n        proposalToBudget[_proposalId].push(budgetsMap[_budgetId]);\n        emit BudgetCreatedOrUpdated(_proposalId, _budgetId, _cid);\n    }\n\n    function addInvoiceToBudget(bytes32 _budgetId, string memory _cid) public {\n        budgetToInvoices[_budgetId].push(_cid);\n    }\n\n    function getInvoicesByBudget(bytes32 _budgetId) public view returns(string[] memory) {\n        return budgetToInvoices[_budgetId];\n    }\n\n    function getBudget(bytes32 _budgetId) public view returns(string memory) {\n        return budgetsMap[_budgetId].cid;\n    }\n\n    function setBudget(bytes32 _budgetId, bytes32 _cid) public{\n        budgetToCid[_budgetId] = _cid;\n    }\n    function getBudgetToCid(bytes32 _budgetId) public view returns(bytes32) {\n        return budgetToCid[_budgetId];\n    }\n\n    function getCidsFromProposal(bytes32 _proposalId) public view returns (string[] memory) {\n        Budget[] storage budgets = proposalToBudget[_proposalId];\n        string[] memory cids = new string[](budgets.length);\n\n        for (uint256 i = 0; i < budgets.length; i++) {\n            cids[i] = budgets[i].cid;\n        }\n\n        return cids;\n    }\n}",
  "sourcePath": "/Users/manjindersingh/Desktop/Prototype/contracts/BudgetContract.sol",
  "compiler": {
    "name": "solc",
    "version": "0.8.19+commit.7dd6d404.Emscripten.clang"
  },
  "schemaVersion": "3.4.13",
  "updatedAt": "2023-07-17T02:57:43.146Z",
  "networkType": "ethereum",
  "devdoc": {
    "kind": "dev",
    "methods": {},
    "version": 1
  },
  "userdoc": {
    "kind": "user",
    "methods": {},
    "version": 1
  }
}