{
  "contractName": "BudgetContract",
  "abi": [
    {
      "anonymous": false,
      "inputs": [
        {
          "indexed": false,
          "internalType": "bytes32",
          "name": "proposalId",
          "type": "bytes32"
        },
        {
          "indexed": false,
          "internalType": "bytes32",
          "name": "budgetId",
          "type": "bytes32"
        },
        {
          "indexed": false,
          "internalType": "bytes32",
          "name": "cid",
          "type": "bytes32"
        }
      ],
      "name": "BudgetCreatedOrUpdated",
      "type": "event"
    },
    {
      "inputs": [
        {
          "internalType": "bytes32",
          "name": "",
          "type": "bytes32"
        }
      ],
      "name": "budgetToCid",
      "outputs": [
        {
          "internalType": "bytes32",
          "name": "",
          "type": "bytes32"
        }
      ],
      "stateMutability": "view",
      "type": "function",
      "constant": true
    },
    {
      "inputs": [
        {
          "internalType": "bytes32",
          "name": "",
          "type": "bytes32"
        }
      ],
      "name": "budgetsMap",
      "outputs": [
        {
          "internalType": "bytes32",
          "name": "proposalId",
          "type": "bytes32"
        },
        {
          "internalType": "bytes32",
          "name": "budgetId",
          "type": "bytes32"
        },
        {
          "internalType": "bytes32",
          "name": "cid",
          "type": "bytes32"
        }
      ],
      "stateMutability": "view",
      "type": "function",
      "constant": true
    },
    {
      "inputs": [
        {
          "internalType": "bytes32",
          "name": "",
          "type": "bytes32"
        },
        {
          "internalType": "uint256",
          "name": "",
          "type": "uint256"
        }
      ],
      "name": "proposalToBudget",
      "outputs": [
        {
          "internalType": "bytes32",
          "name": "proposalId",
          "type": "bytes32"
        },
        {
          "internalType": "bytes32",
          "name": "budgetId",
          "type": "bytes32"
        },
        {
          "internalType": "bytes32",
          "name": "cid",
          "type": "bytes32"
        }
      ],
      "stateMutability": "view",
      "type": "function",
      "constant": true
    },
    {
      "inputs": [
        {
          "internalType": "bytes32",
          "name": "_proposalId",
          "type": "bytes32"
        },
        {
          "internalType": "bytes32",
          "name": "_budgetId",
          "type": "bytes32"
        },
        {
          "internalType": "bytes32",
          "name": "_cid",
          "type": "bytes32"
        }
      ],
      "name": "createBudget",
      "outputs": [],
      "stateMutability": "nonpayable",
      "type": "function"
    },
    {
      "inputs": [
        {
          "internalType": "bytes32",
          "name": "_budgetId",
          "type": "bytes32"
        }
      ],
      "name": "getBudget",
      "outputs": [
        {
          "internalType": "bytes32",
          "name": "",
          "type": "bytes32"
        }
      ],
      "stateMutability": "view",
      "type": "function",
      "constant": true
    },
    {
      "inputs": [
        {
          "internalType": "bytes32",
          "name": "_budgetId",
          "type": "bytes32"
        },
        {
          "internalType": "bytes32",
          "name": "_cid",
          "type": "bytes32"
        }
      ],
      "name": "setBudget",
      "outputs": [],
      "stateMutability": "nonpayable",
      "type": "function"
    },
    {
      "inputs": [
        {
          "internalType": "bytes32",
          "name": "_budgetId",
          "type": "bytes32"
        }
      ],
      "name": "getBudgetToCid",
      "outputs": [
        {
          "internalType": "bytes32",
          "name": "",
          "type": "bytes32"
        }
      ],
      "stateMutability": "view",
      "type": "function",
      "constant": true
    },
    {
      "inputs": [
        {
          "internalType": "bytes32",
          "name": "_proposalId",
          "type": "bytes32"
        }
      ],
      "name": "getCidsFromProposal",
      "outputs": [
        {
          "internalType": "bytes32[]",
          "name": "",
          "type": "bytes32[]"
        }
      ],
      "stateMutability": "view",
      "type": "function",
      "constant": true
    }
  ],
  "bytecode": "0x608060405234801561001057600080fd5b5061085e806100206000396000f3fe608060405234801561001057600080fd5b50600436106100885760003560e01c806363c0c8f21161005b57806363c0c8f21461013b57806388b7c48d1461016d57806399be4d9714610189578063b6f8b5ea146101b957610088565b80631ef7287b1461008d578063546887a3146100bf57806356d3d690146100ef57806357ff1a9c1461010b575b600080fd5b6100a760048036038101906100a29190610512565b6101e9565b6040516100b693929190610561565b60405180910390f35b6100d960048036038101906100d49190610598565b610230565b6040516100e691906105c5565b60405180910390f35b610109600480360381019061010491906105e0565b61024f565b005b61012560048036038101906101209190610598565b61034b565b60405161013291906105c5565b60405180910390f35b61015560048036038101906101509190610598565b610368565b60405161016493929190610561565b60405180910390f35b61018760048036038101906101829190610633565b610392565b005b6101a3600480360381019061019e9190610598565b6103ae565b6040516101b09190610731565b60405180910390f35b6101d360048036038101906101ce9190610598565b610489565b6040516101e091906105c5565b60405180910390f35b6001602052816000526040600020818154811061020557600080fd5b9060005260206000209060030201600091509150508060000154908060010154908060020154905083565b6000806000838152602001908152602001600020600201549050919050565b60405180606001604052808481526020018381526020018281525060008084815260200190815260200160002060008201518160000155602082015181600101556040820151816002015590505060016000848152602001908152602001600020600080848152602001908152602001600020908060018154018082558091505060019003906000526020600020906003020160009091909190915060008201548160000155600182015481600101556002820154816002015550507fb43e6040ac058aad6398c308e9763dc699dffd9918a4f9fca0b72147d27becdc83838360405161033e93929190610561565b60405180910390a1505050565b600060026000838152602001908152602001600020549050919050565b60006020528060005260406000206000915090508060000154908060010154908060020154905083565b8060026000848152602001908152602001600020819055505050565b606060006001600084815260200190815260200160002090506000818054905067ffffffffffffffff8111156103e7576103e6610753565b5b6040519080825280602002602001820160405280156104155781602001602082028036833780820191505090505b50905060005b828054905081101561047e5782818154811061043a57610439610782565b5b90600052602060002090600302016002015482828151811061045f5761045e610782565b5b6020026020010181815250508080610476906107e0565b91505061041b565b508092505050919050565b60026020528060005260406000206000915090505481565b600080fd5b6000819050919050565b6104b9816104a6565b81146104c457600080fd5b50565b6000813590506104d6816104b0565b92915050565b6000819050919050565b6104ef816104dc565b81146104fa57600080fd5b50565b60008135905061050c816104e6565b92915050565b60008060408385031215610529576105286104a1565b5b6000610537858286016104c7565b9250506020610548858286016104fd565b9150509250929050565b61055b816104a6565b82525050565b60006060820190506105766000830186610552565b6105836020830185610552565b6105906040830184610552565b949350505050565b6000602082840312156105ae576105ad6104a1565b5b60006105bc848285016104c7565b91505092915050565b60006020820190506105da6000830184610552565b92915050565b6000806000606084860312156105f9576105f86104a1565b5b6000610607868287016104c7565b9350506020610618868287016104c7565b9250506040610629868287016104c7565b9150509250925092565b6000806040838503121561064a576106496104a1565b5b6000610658858286016104c7565b9250506020610669858286016104c7565b9150509250929050565b600081519050919050565b600082825260208201905092915050565b6000819050602082019050919050565b6106a8816104a6565b82525050565b60006106ba838361069f565b60208301905092915050565b6000602082019050919050565b60006106de82610673565b6106e8818561067e565b93506106f38361068f565b8060005b8381101561072457815161070b88826106ae565b9750610716836106c6565b9250506001810190506106f7565b5085935050505092915050565b6000602082019050818103600083015261074b81846106d3565b905092915050565b7f4e487b7100000000000000000000000000000000000000000000000000000000600052604160045260246000fd5b7f4e487b7100000000000000000000000000000000000000000000000000000000600052603260045260246000fd5b7f4e487b7100000000000000000000000000000000000000000000000000000000600052601160045260246000fd5b60006107eb826104dc565b91507fffffffffffffffffffffffffffffffffffffffffffffffffffffffffffffffff820361081d5761081c6107b1565b5b60018201905091905056fea2646970667358221220867be759beb904ea37cf30b9006b596ca4fcb1f6d62d5dad92aecef5f794ca5b64736f6c63430008130033",
  "immutableReferences": {},
  "source": "//SPDX-License-Identifier: GPL-3.0\npragma solidity ^0.8.0;\n\ncontract BudgetContract{\n    event BudgetCreatedOrUpdated(bytes32 proposalId, bytes32 budgetId, bytes32 cid);\n\n    struct Budget{\n        bytes32 proposalId;\n        bytes32 budgetId;\n        bytes32 cid;\n    }\n\n    // Budget[] public budgets;\n    mapping(bytes32 => Budget) public budgetsMap;\n    mapping(bytes32 => Budget[]) public proposalToBudget;\n    mapping(bytes32 => bytes32) public budgetToCid;\n\n    function createBudget(bytes32 _proposalId, bytes32 _budgetId, bytes32 _cid) public {\n        // budgets.push(Budget(_proposalId, _budgetId, _cid));\n        budgetsMap[_budgetId] = Budget(_proposalId, _budgetId, _cid);\n        proposalToBudget[_proposalId].push(budgetsMap[_budgetId]);\n        emit BudgetCreatedOrUpdated(_proposalId, _budgetId, _cid);\n    }\n\n\n    function getBudget(bytes32 _budgetId) public view returns(bytes32) {\n        return budgetsMap[_budgetId].cid;\n    }\n\n    function setBudget(bytes32 _budgetId, bytes32 _cid) public{\n        budgetToCid[_budgetId] = _cid;\n    }\n    function getBudgetToCid(bytes32 _budgetId) public view returns(bytes32) {\n        return budgetToCid[_budgetId];\n    }\n\n    function getCidsFromProposal(bytes32 _proposalId) public view returns (bytes32[] memory) {\n        Budget[] storage budgets = proposalToBudget[_proposalId];\n        bytes32[] memory cids = new bytes32[](budgets.length);\n\n        for (uint256 i = 0; i < budgets.length; i++) {\n            cids[i] = budgets[i].cid;\n        }\n\n        return cids;\n    }\n}",
  "sourcePath": "/Users/manjindersingh/Desktop/Prototype/contracts/BudgetContract.sol",
  "compiler": {
    "name": "solc",
    "version": "0.8.19+commit.7dd6d404.Emscripten.clang"
  },
  "schemaVersion": "3.4.13",
  "updatedAt": "2023-07-12T05:58:46.532Z",
  "networkType": "ethereum",
  "devdoc": {
    "kind": "dev",
    "methods": {},
    "version": 1
  },
  "userdoc": {
    "kind": "user",
    "methods": {},
    "version": 1
  }
}