{
  "contractName": "IPFSContract",
  "abi": [
    {
      "inputs": [
        {
          "internalType": "uint256",
          "name": "",
          "type": "uint256"
        }
      ],
      "name": "daos",
      "outputs": [
        {
          "internalType": "uint256",
          "name": "daoId",
          "type": "uint256"
        },
        {
          "components": [
            {
              "internalType": "string",
              "name": "cid",
              "type": "string"
            }
          ],
          "internalType": "struct IPFSContract.IntegrationDetail",
          "name": "integrationDetail",
          "type": "tuple"
        }
      ],
      "stateMutability": "view",
      "type": "function",
      "constant": true
    },
    {
      "inputs": [
        {
          "internalType": "uint256",
          "name": "",
          "type": "uint256"
        },
        {
          "internalType": "uint256",
          "name": "",
          "type": "uint256"
        }
      ],
      "name": "proposals",
      "outputs": [
        {
          "internalType": "uint256",
          "name": "proposalId",
          "type": "uint256"
        },
        {
          "internalType": "uint256",
          "name": "daoId",
          "type": "uint256"
        },
        {
          "internalType": "string",
          "name": "cid",
          "type": "string"
        }
      ],
      "stateMutability": "view",
      "type": "function",
      "constant": true
    },
    {
      "inputs": [
        {
          "internalType": "uint256",
          "name": "_daoId",
          "type": "uint256"
        },
        {
          "components": [
            {
              "internalType": "string",
              "name": "cid",
              "type": "string"
            }
          ],
          "internalType": "struct IPFSContract.IntegrationDetail",
          "name": "_integrationDetail",
          "type": "tuple"
        }
      ],
      "name": "setCIDForDao",
      "outputs": [],
      "stateMutability": "nonpayable",
      "type": "function"
    },
    {
      "inputs": [
        {
          "internalType": "uint256",
          "name": "_proposalId",
          "type": "uint256"
        },
        {
          "internalType": "string",
          "name": "_cid",
          "type": "string"
        },
        {
          "internalType": "uint256",
          "name": "_daoId",
          "type": "uint256"
        }
      ],
      "name": "addProposal",
      "outputs": [],
      "stateMutability": "nonpayable",
      "type": "function"
    },
    {
      "inputs": [
        {
          "internalType": "uint256",
          "name": "_daoId",
          "type": "uint256"
        },
        {
          "internalType": "uint256",
          "name": "_proposalId",
          "type": "uint256"
        },
        {
          "internalType": "string",
          "name": "_cid",
          "type": "string"
        }
      ],
      "name": "setCIDForProposal",
      "outputs": [],
      "stateMutability": "nonpayable",
      "type": "function"
    },
    {
      "inputs": [
        {
          "internalType": "uint256",
          "name": "_daoId",
          "type": "uint256"
        },
        {
          "internalType": "uint256",
          "name": "_proposalId",
          "type": "uint256"
        }
      ],
      "name": "getCIDForProposal",
      "outputs": [
        {
          "internalType": "string",
          "name": "",
          "type": "string"
        }
      ],
      "stateMutability": "view",
      "type": "function",
      "constant": true
    }
  ],
  "bytecode": "0x608060405234801561001057600080fd5b5061107a806100206000396000f3fe608060405234801561001057600080fd5b50600436106100625760003560e01c80636353e2bb146100675780639a25768814610083578063b6b459ea146100b3578063c1a32158146100cf578063c2cfee27146100eb578063ccbbd2601461011d575b600080fd5b610081600480360381019061007c91906106c8565b61014e565b005b61009d6004803603810190610098919061073c565b61020d565b6040516100aa919061080c565b60405180910390f35b6100cd60048036038101906100c8919061082e565b61034f565b005b6100e960048036038101906100e491906108c6565b610422565b005b6101056004803603810190610100919061073c565b61048a565b60405161011493929190610931565b60405180910390f35b6101376004803603810190610132919061096f565b610559565b604051610145929190610a10565b60405180910390f35b60005b6001600086815260200190815260200160002080549050811015610206578360016000878152602001908152602001600020828154811061019557610194610a40565b5b906000526020600020906003020160000154036101f35782826001600088815260200190815260200160002083815481106101d3576101d2610a40565b5b906000526020600020906003020160020191826101f1929190610cb5565b505b80806101fe90610db4565b915050610151565b5050505050565b606060005b6001600085815260200190815260200160002080549050811015610347578260016000868152602001908152602001600020828154811061025657610255610a40565b5b906000526020600020906003020160000154036103345760016000858152602001908152602001600020818154811061029257610291610a40565b5b906000526020600020906003020160020180546102ae90610ad8565b80601f01602080910402602001604051908101604052809291908181526020018280546102da90610ad8565b80156103275780601f106102fc57610100808354040283529160200191610327565b820191906000526020600020905b81548152906001019060200180831161030a57829003601f168201915b5050505050915050610349565b808061033f90610db4565b915050610212565b505b92915050565b6000604051806060016040528086815260200183815260200185858080601f016020809104026020016040519081016040528093929190818152602001838380828437600081840152601f19601f82011690508083019250505050505050815250905060016000838152602001908152602001600020819080600181540180825580915050600190039060005260206000209060030201600090919091909150600082015181600001556020820151816001015560408201518160020190816104189190610dfc565b5050505050505050565b600060405180604001604052808481526020018361043f90611031565b81525090508060008085815260200190815260200160002060008201518160000155602082015181600101600082015181600001908161047f9190610dfc565b505050905050505050565b600160205281600052604060002081815481106104a657600080fd5b9060005260206000209060030201600091509150508060000154908060010154908060020180546104d690610ad8565b80601f016020809104026020016040519081016040528092919081815260200182805461050290610ad8565b801561054f5780601f106105245761010080835404028352916020019161054f565b820191906000526020600020905b81548152906001019060200180831161053257829003601f168201915b5050505050905083565b60006020528060005260406000206000915090508060000154908060010160405180602001604052908160008201805461059290610ad8565b80601f01602080910402602001604051908101604052809291908181526020018280546105be90610ad8565b801561060b5780601f106105e05761010080835404028352916020019161060b565b820191906000526020600020905b8154815290600101906020018083116105ee57829003601f168201915b505050505081525050905082565b6000604051905090565b600080fd5b600080fd5b6000819050919050565b6106408161062d565b811461064b57600080fd5b50565b60008135905061065d81610637565b92915050565b600080fd5b600080fd5b600080fd5b60008083601f84011261068857610687610663565b5b8235905067ffffffffffffffff8111156106a5576106a4610668565b5b6020830191508360018202830111156106c1576106c061066d565b5b9250929050565b600080600080606085870312156106e2576106e1610623565b5b60006106f08782880161064e565b94505060206107018782880161064e565b935050604085013567ffffffffffffffff81111561072257610721610628565b5b61072e87828801610672565b925092505092959194509250565b6000806040838503121561075357610752610623565b5b60006107618582860161064e565b92505060206107728582860161064e565b9150509250929050565b600081519050919050565b600082825260208201905092915050565b60005b838110156107b657808201518184015260208101905061079b565b60008484015250505050565b6000601f19601f8301169050919050565b60006107de8261077c565b6107e88185610787565b93506107f8818560208601610798565b610801816107c2565b840191505092915050565b6000602082019050818103600083015261082681846107d3565b905092915050565b6000806000806060858703121561084857610847610623565b5b60006108568782880161064e565b945050602085013567ffffffffffffffff81111561087757610876610628565b5b61088387828801610672565b935093505060406108968782880161064e565b91505092959194509250565b600080fd5b6000602082840312156108bd576108bc6108a2565b5b81905092915050565b600080604083850312156108dd576108dc610623565b5b60006108eb8582860161064e565b925050602083013567ffffffffffffffff81111561090c5761090b610628565b5b610918858286016108a7565b9150509250929050565b61092b8161062d565b82525050565b60006060820190506109466000830186610922565b6109536020830185610922565b818103604083015261096581846107d3565b9050949350505050565b60006020828403121561098557610984610623565b5b60006109938482850161064e565b91505092915050565b600082825260208201905092915050565b60006109b88261077c565b6109c2818561099c565b93506109d2818560208601610798565b6109db816107c2565b840191505092915050565b60006020830160008301518482036000860152610a0382826109ad565b9150508091505092915050565b6000604082019050610a256000830185610922565b8181036020830152610a3781846109e6565b90509392505050565b7f4e487b7100000000000000000000000000000000000000000000000000000000600052603260045260246000fd5b600082905092915050565b7f4e487b7100000000000000000000000000000000000000000000000000000000600052604160045260246000fd5b7f4e487b7100000000000000000000000000000000000000000000000000000000600052602260045260246000fd5b60006002820490506001821680610af057607f821691505b602082108103610b0357610b02610aa9565b5b50919050565b60008190508160005260206000209050919050565b60006020601f8301049050919050565b600082821b905092915050565b600060088302610b6b7fffffffffffffffffffffffffffffffffffffffffffffffffffffffffffffffff82610b2e565b610b758683610b2e565b95508019841693508086168417925050509392505050565b6000819050919050565b6000610bb2610bad610ba88461062d565b610b8d565b61062d565b9050919050565b6000819050919050565b610bcc83610b97565b610be0610bd882610bb9565b848454610b3b565b825550505050565b600090565b610bf5610be8565b610c00818484610bc3565b505050565b5b81811015610c2457610c19600082610bed565b600181019050610c06565b5050565b601f821115610c6957610c3a81610b09565b610c4384610b1e565b81016020851015610c52578190505b610c66610c5e85610b1e565b830182610c05565b50505b505050565b600082821c905092915050565b6000610c8c60001984600802610c6e565b1980831691505092915050565b6000610ca58383610c7b565b9150826002028217905092915050565b610cbf8383610a6f565b67ffffffffffffffff811115610cd857610cd7610a7a565b5b610ce28254610ad8565b610ced828285610c28565b6000601f831160018114610d1c5760008415610d0a578287013590505b610d148582610c99565b865550610d7c565b601f198416610d2a86610b09565b60005b82811015610d5257848901358255600182019150602085019450602081019050610d2d565b86831015610d6f5784890135610d6b601f891682610c7b565b8355505b6001600288020188555050505b50505050505050565b7f4e487b7100000000000000000000000000000000000000000000000000000000600052601160045260246000fd5b6000610dbf8261062d565b91507fffffffffffffffffffffffffffffffffffffffffffffffffffffffffffffffff8203610df157610df0610d85565b5b600182019050919050565b610e058261077c565b67ffffffffffffffff811115610e1e57610e1d610a7a565b5b610e288254610ad8565b610e33828285610c28565b600060209050601f831160018114610e665760008415610e54578287015190505b610e5e8582610c99565b865550610ec6565b601f198416610e7486610b09565b60005b82811015610e9c57848901518255600182019150602085019450602081019050610e77565b86831015610eb95784890151610eb5601f891682610c7b565b8355505b6001600288020188555050505b505050505050565b600080fd5b610edc826107c2565b810181811067ffffffffffffffff82111715610efb57610efa610a7a565b5b80604052505050565b6000610f0e610619565b9050610f1a8282610ed3565b919050565b600080fd5b600080fd5b600067ffffffffffffffff821115610f4457610f43610a7a565b5b610f4d826107c2565b9050602081019050919050565b82818337600083830152505050565b6000610f7c610f7784610f29565b610f04565b905082815260208101848484011115610f9857610f97610f24565b5b610fa3848285610f5a565b509392505050565b600082601f830112610fc057610fbf610663565b5b8135610fd0848260208601610f69565b91505092915050565b600060208284031215610fef57610fee610ece565b5b610ff96020610f04565b9050600082013567ffffffffffffffff81111561101957611018610f1f565b5b61102584828501610fab565b60008301525092915050565b600061103d3683610fd9565b905091905056fea26469706673582212206f05c979b6f1e357fc0c390a45fd468d01a64a09728b312e89cee5710fe329a364736f6c63430008130033",
  "immutableReferences": {},
  "source": "pragma solidity ^0.8.0;\n\ncontract IPFSContract {\n    struct Proposal {\n        uint256 proposalId;\n        uint256 daoId;\n        string cid; // New field to store CID\n    }\n\n    struct IntegrationDetail {\n        string cid; // New field to store CID\n    }\n    \n    struct Dao {\n        uint256 daoId;\n        IntegrationDetail integrationDetail;\n    }\n    \n    mapping(uint256 => Dao) public daos;\n    mapping(uint256 => Proposal[]) public proposals;\n    \n    function setCIDForDao(uint256 _daoId, IntegrationDetail calldata _integrationDetail) public {\n        Dao memory newDao = Dao(_daoId, _integrationDetail);\n        daos[_daoId] = newDao;\n    }\n    \n    function addProposal(uint256 _proposalId, string calldata _cid, uint256 _daoId) public {\n        Proposal memory newProposal = Proposal(_proposalId, _daoId, _cid);\n        proposals[_daoId].push(newProposal);\n    }\n    \n    function setCIDForProposal(uint256 _daoId,uint256 _proposalId, string calldata _cid) public {\n        for (uint i = 0; i < proposals[_daoId].length; i++) {\n            if(proposals[_daoId][i].proposalId == _proposalId) {\n                proposals[_daoId][i].cid = _cid;\n            }\n        }\n    }\n    \n    function getCIDForProposal(uint256 _daoId, uint256 _proposalId) public view returns (string memory) {\n        for (uint i = 0; i < proposals[_daoId].length; i++) {\n            if (proposals[_daoId][i].proposalId == _proposalId) {\n                return proposals[_daoId][i].cid;\n            }\n        }\n    }\n}\n",
  "sourcePath": "/Users/manjindersingh/Desktop/Prototype/contracts/IPFSContract.sol",
  "compiler": {
    "name": "solc",
    "version": "0.8.19+commit.7dd6d404.Emscripten.clang"
  },
  "schemaVersion": "3.4.13",
  "updatedAt": "2023-06-26T00:19:11.759Z",
  "networkType": "ethereum",
  "devdoc": {
    "kind": "dev",
    "methods": {},
    "version": 1
  },
  "userdoc": {
    "kind": "user",
    "methods": {},
    "version": 1
  }
}