{
  "contractName": "IPFSContract",
  "abi": [
    {
      "inputs": [
        {
          "internalType": "string",
          "name": "",
          "type": "string"
        },
        {
          "internalType": "uint256",
          "name": "",
          "type": "uint256"
        }
      ],
      "name": "budgets",
      "outputs": [
        {
          "internalType": "string",
          "name": "proposalId",
          "type": "string"
        },
        {
          "internalType": "string",
          "name": "budgetId",
          "type": "string"
        },
        {
          "internalType": "string",
          "name": "cid",
          "type": "string"
        }
      ],
      "stateMutability": "view",
      "type": "function",
      "constant": true
    },
    {
      "inputs": [
        {
          "internalType": "string",
          "name": "",
          "type": "string"
        }
      ],
      "name": "daos",
      "outputs": [
        {
          "internalType": "string",
          "name": "daoId",
          "type": "string"
        },
        {
          "components": [
            {
              "internalType": "string",
              "name": "cid",
              "type": "string"
            }
          ],
          "internalType": "struct IPFSContract.IntegrationDetail",
          "name": "integrationDetail",
          "type": "tuple"
        }
      ],
      "stateMutability": "view",
      "type": "function",
      "constant": true
    },
    {
      "inputs": [
        {
          "internalType": "string",
          "name": "",
          "type": "string"
        }
      ],
      "name": "proposals",
      "outputs": [
        {
          "internalType": "string",
          "name": "proposalId",
          "type": "string"
        },
        {
          "internalType": "string",
          "name": "daoId",
          "type": "string"
        },
        {
          "internalType": "string",
          "name": "cid",
          "type": "string"
        }
      ],
      "stateMutability": "view",
      "type": "function",
      "constant": true
    },
    {
      "inputs": [
        {
          "internalType": "string",
          "name": "_daoId",
          "type": "string"
        },
        {
          "components": [
            {
              "internalType": "string",
              "name": "cid",
              "type": "string"
            }
          ],
          "internalType": "struct IPFSContract.IntegrationDetail",
          "name": "_integrationDetail",
          "type": "tuple"
        }
      ],
      "name": "setCIDForDao",
      "outputs": [],
      "stateMutability": "nonpayable",
      "type": "function"
    },
    {
      "inputs": [
        {
          "internalType": "string",
          "name": "_proposalId",
          "type": "string"
        },
        {
          "internalType": "string",
          "name": "_cid",
          "type": "string"
        },
        {
          "internalType": "string",
          "name": "_daoId",
          "type": "string"
        }
      ],
      "name": "addProposal",
      "outputs": [],
      "stateMutability": "view",
      "type": "function",
      "constant": true
    },
    {
      "inputs": [
        {
          "internalType": "string",
          "name": "_daoId",
          "type": "string"
        },
        {
          "internalType": "string",
          "name": "_proposalId",
          "type": "string"
        },
        {
          "internalType": "string",
          "name": "_cid",
          "type": "string"
        }
      ],
      "name": "setCIDForProposal",
      "outputs": [],
      "stateMutability": "nonpayable",
      "type": "function"
    },
    {
      "inputs": [
        {
          "internalType": "string",
          "name": "_daoId",
          "type": "string"
        },
        {
          "internalType": "string",
          "name": "_proposalId",
          "type": "string"
        }
      ],
      "name": "getCIDForProposal",
      "outputs": [
        {
          "internalType": "string",
          "name": "_cid",
          "type": "string"
        }
      ],
      "stateMutability": "view",
      "type": "function",
      "constant": true
    },
    {
      "inputs": [
        {
          "internalType": "string",
          "name": "_proposalId",
          "type": "string"
        },
        {
          "internalType": "string",
          "name": "_budgetId",
          "type": "string"
        },
        {
          "internalType": "string",
          "name": "_cid",
          "type": "string"
        }
      ],
      "name": "setBudgetsHash",
      "outputs": [],
      "stateMutability": "nonpayable",
      "type": "function"
    },
    {
      "inputs": [
        {
          "internalType": "string",
          "name": "proposalId",
          "type": "string"
        }
      ],
      "name": "getProposalBudgets",
      "outputs": [
        {
          "components": [
            {
              "internalType": "string",
              "name": "proposalId",
              "type": "string"
            },
            {
              "internalType": "string",
              "name": "budgetId",
              "type": "string"
            },
            {
              "internalType": "string",
              "name": "cid",
              "type": "string"
            }
          ],
          "internalType": "struct IPFSContract.Budget[]",
          "name": "",
          "type": "tuple[]"
        }
      ],
      "stateMutability": "view",
      "type": "function",
      "constant": true
    }
  ],
  "bytecode": "0x608060405234801561001057600080fd5b506117da806100206000396000f3fe608060405234801561001057600080fd5b50600436106100935760003560e01c8063a8e1599011610066578063a8e1599014610146578063cd12a4b114610162578063e12ea8ba1461017e578063eca391b6146101af578063ffa0d2a4146101cb57610093565b8063721e36bd1461009857806378c83718146100ca57806380714163146100fa578063a6c72fc91461012a575b600080fd5b6100b260048036038101906100ad9190610d56565b6101fd565b6040516100c193929190610e31565b60405180910390f35b6100e460048036038101906100df9190610edd565b6103f2565b6040516100f19190611094565b60405180910390f35b610114600480360381019061010f91906110b6565b610628565b6040516101219190611137565b60405180910390f35b610144600480360381019061013f9190611159565b610632565b005b610160600480360381019061015b919061120d565b6107ba565b005b61017c60048036038101906101779190611159565b6107c1565b005b610198600480360381019061019391906112be565b6107c9565b6040516101a6929190611331565b60405180910390f35b6101c960048036038101906101c4919061138c565b610927565b005b6101e560048036038101906101e091906112be565b6109ee565b6040516101f493929190610e31565b60405180910390f35b600282805160208101820180518482526020830160208501208183528095505050505050818154811061022f57600080fd5b90600052602060002090600302016000915091505080600001805461025390611437565b80601f016020809104026020016040519081016040528092919081815260200182805461027f90611437565b80156102cc5780601f106102a1576101008083540402835291602001916102cc565b820191906000526020600020905b8154815290600101906020018083116102af57829003601f168201915b5050505050908060010180546102e190611437565b80601f016020809104026020016040519081016040528092919081815260200182805461030d90611437565b801561035a5780601f1061032f5761010080835404028352916020019161035a565b820191906000526020600020905b81548152906001019060200180831161033d57829003601f168201915b50505050509080600201805461036f90611437565b80601f016020809104026020016040519081016040528092919081815260200182805461039b90611437565b80156103e85780601f106103bd576101008083540402835291602001916103e8565b820191906000526020600020905b8154815290600101906020018083116103cb57829003601f168201915b5050505050905083565b606060028383604051610406929190611498565b9081526020016040518091039020805480602002602001604051908101604052809291908181526020016000905b8282101561061c578382906000526020600020906003020160405180606001604052908160008201805461046790611437565b80601f016020809104026020016040519081016040528092919081815260200182805461049390611437565b80156104e05780601f106104b5576101008083540402835291602001916104e0565b820191906000526020600020905b8154815290600101906020018083116104c357829003601f168201915b505050505081526020016001820180546104f990611437565b80601f016020809104026020016040519081016040528092919081815260200182805461052590611437565b80156105725780601f1061054757610100808354040283529160200191610572565b820191906000526020600020905b81548152906001019060200180831161055557829003601f168201915b5050505050815260200160028201805461058b90611437565b80601f01602080910402602001604051908101604052809291908181526020018280546105b790611437565b80156106045780601f106105d957610100808354040283529160200191610604565b820191906000526020600020905b8154815290600101906020018083116105e757829003601f168201915b50505050508152505081526020019060010190610434565b50505050905092915050565b6060949350505050565b600060028787604051610646929190611498565b908152602001604051809103902090506000604051806060016040528089898080601f016020809104026020016040519081016040528093929190818152602001838380828437600081840152601f19601f82011690508083019250505050505050815260200187878080601f016020809104026020016040519081016040528093929190818152602001838380828437600081840152601f19601f82011690508083019250505050505050815260200185858080601f016020809104026020016040519081016040528093929190818152602001838380828437600081840152601f19601f820116905080830192505050505050508152509050818190806001815401808255809150506001900390600052602060002090600302016000909190919091506000820151816000019081610781919061165d565b506020820151816001019081610797919061165d565b5060408201518160020190816107ad919061165d565b5050505050505050505050565b5050505050565b505050505050565b60008180516020810182018051848252602083016020850120818352809550505050505060009150905080600001805461080290611437565b80601f016020809104026020016040519081016040528092919081815260200182805461082e90611437565b801561087b5780601f106108505761010080835404028352916020019161087b565b820191906000526020600020905b81548152906001019060200180831161085e57829003601f168201915b505050505090806001016040518060200160405290816000820180546108a090611437565b80601f01602080910402602001604051908101604052809291908181526020018280546108cc90611437565b80156109195780601f106108ee57610100808354040283529160200191610919565b820191906000526020600020905b8154815290600101906020018083116108fc57829003601f168201915b505050505081525050905082565b6000604051806040016040528085858080601f016020809104026020016040519081016040528093929190818152602001838380828437600081840152601f19601f8201169050808301925050505050505081526020018361098890611791565b815250905080600085856040516109a0929190611498565b908152602001604051809103902060008201518160000190816109c3919061165d565b5060208201518160010160008201518160000190816109e2919061165d565b50505090505050505050565b600181805160208101820180518482526020830160208501208183528095505050505050600091509050806000018054610a2790611437565b80601f0160208091040260200160405190810160405280929190818152602001828054610a5390611437565b8015610aa05780601f10610a7557610100808354040283529160200191610aa0565b820191906000526020600020905b815481529060010190602001808311610a8357829003601f168201915b505050505090806001018054610ab590611437565b80601f0160208091040260200160405190810160405280929190818152602001828054610ae190611437565b8015610b2e5780601f10610b0357610100808354040283529160200191610b2e565b820191906000526020600020905b815481529060010190602001808311610b1157829003601f168201915b505050505090806002018054610b4390611437565b80601f0160208091040260200160405190810160405280929190818152602001828054610b6f90611437565b8015610bbc5780601f10610b9157610100808354040283529160200191610bbc565b820191906000526020600020905b815481529060010190602001808311610b9f57829003601f168201915b5050505050905083565b6000604051905090565b600080fd5b600080fd5b600080fd5b600080fd5b6000601f19601f8301169050919050565b7f4e487b7100000000000000000000000000000000000000000000000000000000600052604160045260246000fd5b610c2d82610be4565b810181811067ffffffffffffffff82111715610c4c57610c4b610bf5565b5b80604052505050565b6000610c5f610bc6565b9050610c6b8282610c24565b919050565b600067ffffffffffffffff821115610c8b57610c8a610bf5565b5b610c9482610be4565b9050602081019050919050565b82818337600083830152505050565b6000610cc3610cbe84610c70565b610c55565b905082815260208101848484011115610cdf57610cde610bdf565b5b610cea848285610ca1565b509392505050565b600082601f830112610d0757610d06610bda565b5b8135610d17848260208601610cb0565b91505092915050565b6000819050919050565b610d3381610d20565b8114610d3e57600080fd5b50565b600081359050610d5081610d2a565b92915050565b60008060408385031215610d6d57610d6c610bd0565b5b600083013567ffffffffffffffff811115610d8b57610d8a610bd5565b5b610d9785828601610cf2565b9250506020610da885828601610d41565b9150509250929050565b600081519050919050565b600082825260208201905092915050565b60005b83811015610dec578082015181840152602081019050610dd1565b60008484015250505050565b6000610e0382610db2565b610e0d8185610dbd565b9350610e1d818560208601610dce565b610e2681610be4565b840191505092915050565b60006060820190508181036000830152610e4b8186610df8565b90508181036020830152610e5f8185610df8565b90508181036040830152610e738184610df8565b9050949350505050565b600080fd5b600080fd5b60008083601f840112610e9d57610e9c610bda565b5b8235905067ffffffffffffffff811115610eba57610eb9610e7d565b5b602083019150836001820283011115610ed657610ed5610e82565b5b9250929050565b60008060208385031215610ef457610ef3610bd0565b5b600083013567ffffffffffffffff811115610f1257610f11610bd5565b5b610f1e85828601610e87565b92509250509250929050565b600081519050919050565b600082825260208201905092915050565b6000819050602082019050919050565b600082825260208201905092915050565b6000610f7282610db2565b610f7c8185610f56565b9350610f8c818560208601610dce565b610f9581610be4565b840191505092915050565b60006060830160008301518482036000860152610fbd8282610f67565b91505060208301518482036020860152610fd78282610f67565b91505060408301518482036040860152610ff18282610f67565b9150508091505092915050565b600061100a8383610fa0565b905092915050565b6000602082019050919050565b600061102a82610f2a565b6110348185610f35565b93508360208202850161104685610f46565b8060005b8581101561108257848403895281516110638582610ffe565b945061106e83611012565b925060208a0199505060018101905061104a565b50829750879550505050505092915050565b600060208201905081810360008301526110ae818461101f565b905092915050565b600080600080604085870312156110d0576110cf610bd0565b5b600085013567ffffffffffffffff8111156110ee576110ed610bd5565b5b6110fa87828801610e87565b9450945050602085013567ffffffffffffffff81111561111d5761111c610bd5565b5b61112987828801610e87565b925092505092959194509250565b600060208201905081810360008301526111518184610df8565b905092915050565b6000806000806000806060878903121561117657611175610bd0565b5b600087013567ffffffffffffffff81111561119457611193610bd5565b5b6111a089828a01610e87565b9650965050602087013567ffffffffffffffff8111156111c3576111c2610bd5565b5b6111cf89828a01610e87565b9450945050604087013567ffffffffffffffff8111156111f2576111f1610bd5565b5b6111fe89828a01610e87565b92509250509295509295509295565b60008060008060006060868803121561122957611228610bd0565b5b600086013567ffffffffffffffff81111561124757611246610bd5565b5b61125388828901610cf2565b955050602086013567ffffffffffffffff81111561127457611273610bd5565b5b61128088828901610e87565b9450945050604086013567ffffffffffffffff8111156112a3576112a2610bd5565b5b6112af88828901610e87565b92509250509295509295909350565b6000602082840312156112d4576112d3610bd0565b5b600082013567ffffffffffffffff8111156112f2576112f1610bd5565b5b6112fe84828501610cf2565b91505092915050565b600060208301600083015184820360008601526113248282610f67565b9150508091505092915050565b6000604082019050818103600083015261134b8185610df8565b9050818103602083015261135f8184611307565b90509392505050565b600080fd5b60006020828403121561138357611382611368565b5b81905092915050565b6000806000604084860312156113a5576113a4610bd0565b5b600084013567ffffffffffffffff8111156113c3576113c2610bd5565b5b6113cf86828701610e87565b9350935050602084013567ffffffffffffffff8111156113f2576113f1610bd5565b5b6113fe8682870161136d565b9150509250925092565b7f4e487b7100000000000000000000000000000000000000000000000000000000600052602260045260246000fd5b6000600282049050600182168061144f57607f821691505b60208210810361146257611461611408565b5b50919050565b600081905092915050565b600061147f8385611468565b935061148c838584610ca1565b82840190509392505050565b60006114a5828486611473565b91508190509392505050565b60008190508160005260206000209050919050565b60006020601f8301049050919050565b600082821b905092915050565b6000600883026115137fffffffffffffffffffffffffffffffffffffffffffffffffffffffffffffffff826114d6565b61151d86836114d6565b95508019841693508086168417925050509392505050565b6000819050919050565b600061155a61155561155084610d20565b611535565b610d20565b9050919050565b6000819050919050565b6115748361153f565b61158861158082611561565b8484546114e3565b825550505050565b600090565b61159d611590565b6115a881848461156b565b505050565b5b818110156115cc576115c1600082611595565b6001810190506115ae565b5050565b601f821115611611576115e2816114b1565b6115eb846114c6565b810160208510156115fa578190505b61160e611606856114c6565b8301826115ad565b50505b505050565b600082821c905092915050565b600061163460001984600802611616565b1980831691505092915050565b600061164d8383611623565b9150826002028217905092915050565b61166682610db2565b67ffffffffffffffff81111561167f5761167e610bf5565b5b6116898254611437565b6116948282856115d0565b600060209050601f8311600181146116c757600084156116b5578287015190505b6116bf8582611641565b865550611727565b601f1984166116d5866114b1565b60005b828110156116fd578489015182556001820191506020850194506020810190506116d8565b8683101561171a5784890151611716601f891682611623565b8355505b6001600288020188555050505b505050505050565b600080fd5b600080fd5b60006020828403121561174f5761174e61172f565b5b6117596020610c55565b9050600082013567ffffffffffffffff81111561177957611778611734565b5b61178584828501610cf2565b60008301525092915050565b600061179d3683611739565b905091905056fea26469706673582212200aec5b4864309fac89777136876c44ee3d262c81a90f1356a9d226dc6b60c9ba64736f6c63430008130033",
  "immutableReferences": {},
  "source": "pragma solidity ^0.8.0;\n\ncontract IPFSContract {\n    struct Proposal {\n        string proposalId;\n        string daoId;\n        string cid;\n    }\n\n    struct IntegrationDetail {\n        string cid; // New field to store CID\n    }\n\n    struct Budget {\n        string proposalId;\n        string budgetId;\n        string cid;\n    }\n\n    struct Dao {\n        string daoId;\n        IntegrationDetail integrationDetail;\n    }\n\n    //daoid => dao\n    mapping(string => Dao) public daos;\n    //daoId => proposal[]\n    mapping(string => Proposal) public proposals;\n    //proposalId => budget[]\n    mapping(string => Budget[]) public budgets;\n\n    function setCIDForDao(\n        string calldata _daoId,\n        IntegrationDetail calldata _integrationDetail\n    ) public {\n        Dao memory newDao = Dao(_daoId, _integrationDetail);\n        daos[_daoId] = newDao;\n    }\n\n    function addProposal(\n        string memory _proposalId,\n        string calldata _cid,\n        string calldata _daoId\n    ) public view {\n        // string memory proposalId = keccak256(_proposalId);\n        // require(proposals[proposalId] == proposalId, \"Proposal already exists\");\n        // Proposal(_proposalId, _daoId, _cid);\n    }\n\n    //use it when data for proposal like budget is set initially\n    function setCIDForProposal(\n        string calldata _daoId,\n        string calldata _proposalId,\n        string calldata _cid\n    ) public {\n        // for (uint i = 0; i < proposals[_daoId].length; i++) {\n        //     if(proposals[_daoId][i].proposalId == _proposalId) {\n        //         proposals[_daoId][i].cid = _cid;\n        //     }\n        // }\n    }\n\n    //use it to populate budget field for proposal\n    function getCIDForProposal(\n        string calldata _daoId,\n        string calldata _proposalId\n    ) public view returns (string memory _cid) {\n        // for (uint i = 0; i < proposals[_daoId].length; i++) {\n        //     if (proposals[_daoId][i].proposalId == _proposalId) {\n        //         return proposals[_daoId][i].cid;\n        //     }\n        // }\n    }\n\n    function setBudgetsHash(\n        string calldata _proposalId,\n        string calldata _budgetId,\n        string calldata _cid\n    ) public {\n        Budget[] storage proposalBudgets = budgets[_proposalId];\n        Budget memory newBudget = Budget(_proposalId, _budgetId, _cid);\n        proposalBudgets.push(newBudget);\n    }\n\n    //use it get all the hashes for proposal's budgets\n    function getProposalBudgets(\n        string calldata proposalId\n    ) public view returns (Budget[] memory) {\n        return budgets[proposalId];\n    }\n}\n",
  "sourcePath": "/Users/manjindersingh/Desktop/Prototype/contracts/IPFSContract.sol",
  "compiler": {
    "name": "solc",
    "version": "0.8.19+commit.7dd6d404.Emscripten.clang"
  },
  "schemaVersion": "3.4.13",
  "updatedAt": "2023-07-03T05:48:26.413Z",
  "networkType": "ethereum",
  "devdoc": {
    "kind": "dev",
    "methods": {},
    "version": 1
  },
  "userdoc": {
    "kind": "user",
    "methods": {},
    "version": 1
  }
}