{
  "contractName": "MyContract",
  "abi": [
    {
      "inputs": [],
      "name": "setAddress",
      "outputs": [],
      "stateMutability": "nonpayable",
      "type": "function"
    },
    {
      "inputs": [],
      "name": "getAddresses",
      "outputs": [
        {
          "internalType": "address[]",
          "name": "",
          "type": "address[]"
        }
      ],
      "stateMutability": "view",
      "type": "function",
      "constant": true
    },
    {
      "inputs": [],
      "name": "isUserAllowed",
      "outputs": [
        {
          "internalType": "bool",
          "name": "isPermitted",
          "type": "bool"
        }
      ],
      "stateMutability": "view",
      "type": "function",
      "constant": true
    }
  ],
  "bytecode": "0x608060405234801561001057600080fd5b506104ed806100206000396000f3fe608060405234801561001057600080fd5b50600436106100415760003560e01c8063184d93bd14610046578063a39fac1214610064578063e656927514610082575b600080fd5b61004e61008c565b60405161005b91906102da565b60405180910390f35b61006c610130565b60405161007991906103e5565b60405180910390f35b61008a6101be565b005b6000805b60008054905081101561012b573373ffffffffffffffffffffffffffffffffffffffff16600082815481106100c8576100c7610407565b5b9060005260206000200160009054906101000a900473ffffffffffffffffffffffffffffffffffffffff1673ffffffffffffffffffffffffffffffffffffffff160361011857600191505061012d565b80806101239061046f565b915050610090565b505b90565b606060008054806020026020016040519081016040528092919081815260200182805480156101b457602002820191906000526020600020905b8160009054906101000a900473ffffffffffffffffffffffffffffffffffffffff1673ffffffffffffffffffffffffffffffffffffffff168152602001906001019080831161016a575b5050505050905090565b60005b600080549050811015610258573373ffffffffffffffffffffffffffffffffffffffff16600082815481106101f9576101f8610407565b5b9060005260206000200160009054906101000a900473ffffffffffffffffffffffffffffffffffffffff1673ffffffffffffffffffffffffffffffffffffffff160361024557506102bd565b80806102509061046f565b9150506101c1565b506000339080600181540180825580915050600190039060005260206000200160009091909190916101000a81548173ffffffffffffffffffffffffffffffffffffffff021916908373ffffffffffffffffffffffffffffffffffffffff1602179055505b565b60008115159050919050565b6102d4816102bf565b82525050565b60006020820190506102ef60008301846102cb565b92915050565b600081519050919050565b600082825260208201905092915050565b6000819050602082019050919050565b600073ffffffffffffffffffffffffffffffffffffffff82169050919050565b600061034c82610321565b9050919050565b61035c81610341565b82525050565b600061036e8383610353565b60208301905092915050565b6000602082019050919050565b6000610392826102f5565b61039c8185610300565b93506103a783610311565b8060005b838110156103d85781516103bf8882610362565b97506103ca8361037a565b9250506001810190506103ab565b5085935050505092915050565b600060208201905081810360008301526103ff8184610387565b905092915050565b7f4e487b7100000000000000000000000000000000000000000000000000000000600052603260045260246000fd5b7f4e487b7100000000000000000000000000000000000000000000000000000000600052601160045260246000fd5b6000819050919050565b600061047a82610465565b91507fffffffffffffffffffffffffffffffffffffffffffffffffffffffffffffffff82036104ac576104ab610436565b5b60018201905091905056fea26469706673582212202e8e9b78e431ad12994e6d1357b229293f04e811ee2bedd9b4decf96a9caf03b64736f6c63430008130033",
  "immutableReferences": {},
  "source": "pragma solidity ^0.8.19;\n\ncontract MyContract {\n  address[] private permittedAddresses;\n  //permittedAddresses[0] = \"0x715a21b7683f15ff5920689196af0e8b68f990a7\";\n\n  // constructor(address[] memory _permittedAddresses) {\n  //   permittedAddresses = _permittedAddresses;\n  // }\n\n// ToDo: this method controls the paid version! Remember to modify as needed!\n  function setAddress() public  {\n    for (uint256 i = 0; i < permittedAddresses.length; i++) {\n      if (permittedAddresses[i] == msg.sender) {\n        return;\n      } \n    }\n    permittedAddresses.push(msg.sender);\n  }\n\n  function getAddresses() public view returns (address[] memory) {\n    return permittedAddresses;\n  }\n\n  modifier onlyPermitted() {\n    bool isPermitted = false;\n    for (uint256 i = 0; i < permittedAddresses.length; i++) {\n      if (permittedAddresses[i] == msg.sender) {\n        isPermitted = true;\n        break;\n      }\n    }\n    require(isPermitted, \"Only permitted addresses allowed\");\n    _;\n  }\n\n  // Function that can only be accessed by permitted addresses\n  function isUserAllowed() public view returns(bool isPermitted)  {\n      isPermitted = false;\n      for (uint256 i = 0; i < permittedAddresses.length; i++) {\n        if (permittedAddresses[i] == msg.sender) {\n          isPermitted = true;\n          return isPermitted;\n        }\n    }\n  }\n}\n",
  "sourcePath": "/Users/manjindersingh/Desktop/Prototype/contracts/MyContract.sol",
  "compiler": {
    "name": "solc",
    "version": "0.8.19+commit.7dd6d404.Emscripten.clang"
  },
  "schemaVersion": "3.4.13",
  "updatedAt": "2023-07-13T06:43:33.674Z",
  "networkType": "ethereum",
  "devdoc": {
    "kind": "dev",
    "methods": {},
    "version": 1
  },
  "userdoc": {
    "kind": "user",
    "methods": {},
    "version": 1
  }
}