{
  "contractName": "MyContract",
  "abi": [
    {
      "inputs": [
        {
          "internalType": "address",
          "name": "_address",
          "type": "address"
        }
      ],
      "name": "setAddress",
      "outputs": [],
      "stateMutability": "nonpayable",
      "type": "function"
    },
    {
      "inputs": [],
      "name": "isUserAllowed",
      "outputs": [
        {
          "internalType": "bool",
          "name": "isPermitted",
          "type": "bool"
        }
      ],
      "stateMutability": "view",
      "type": "function",
      "constant": true
    }
  ],
  "bytecode": "0x608060405234801561001057600080fd5b5061032b806100206000396000f3fe608060405234801561001057600080fd5b50600436106100365760003560e01c8063184d93bd1461003b578063e30081a014610059575b600080fd5b610043610075565b604051610050919061019a565b60405180910390f35b610073600480360381019061006e9190610218565b610119565b005b6000805b600080549050811015610114573373ffffffffffffffffffffffffffffffffffffffff16600082815481106100b1576100b0610245565b5b9060005260206000200160009054906101000a900473ffffffffffffffffffffffffffffffffffffffff1673ffffffffffffffffffffffffffffffffffffffff1603610101576001915050610116565b808061010c906102ad565b915050610079565b505b90565b6000819080600181540180825580915050600190039060005260206000200160009091909190916101000a81548173ffffffffffffffffffffffffffffffffffffffff021916908373ffffffffffffffffffffffffffffffffffffffff16021790555050565b60008115159050919050565b6101948161017f565b82525050565b60006020820190506101af600083018461018b565b92915050565b600080fd5b600073ffffffffffffffffffffffffffffffffffffffff82169050919050565b60006101e5826101ba565b9050919050565b6101f5816101da565b811461020057600080fd5b50565b600081359050610212816101ec565b92915050565b60006020828403121561022e5761022d6101b5565b5b600061023c84828501610203565b91505092915050565b7f4e487b7100000000000000000000000000000000000000000000000000000000600052603260045260246000fd5b7f4e487b7100000000000000000000000000000000000000000000000000000000600052601160045260246000fd5b6000819050919050565b60006102b8826102a3565b91507fffffffffffffffffffffffffffffffffffffffffffffffffffffffffffffffff82036102ea576102e9610274565b5b60018201905091905056fea26469706673582212209bedcedb51d90ce5cba008cb0b765634829442755f5fb0c1a9a79ae8a095f0ed64736f6c63430008130033",
  "immutableReferences": {},
  "source": "pragma solidity ^0.8.19;\n\ncontract MyContract {\n  address[] private permittedAddresses;\n  //permittedAddresses[0] = \"0x715a21b7683f15ff5920689196af0e8b68f990a7\";\n\n  // constructor(address[] memory _permittedAddresses) {\n  //   permittedAddresses = _permittedAddresses;\n  // }\n\n  function setAddress(address _address) public  {\n    permittedAddresses.push(_address);\n  }\n\n  modifier onlyPermitted() {\n    bool isPermitted = false;\n    for (uint256 i = 0; i < permittedAddresses.length; i++) {\n      if (permittedAddresses[i] == msg.sender) {\n        isPermitted = true;\n        break;\n      }\n    }\n    require(isPermitted, \"Only permitted addresses allowed\");\n    _;\n  }\n\n  // Function that can only be accessed by permitted addresses\n  function isUserAllowed() public view returns(bool isPermitted)  {\n      isPermitted = false;\n      for (uint256 i = 0; i < permittedAddresses.length; i++) {\n        if (permittedAddresses[i] == msg.sender) {\n          isPermitted = true;\n          return isPermitted;\n        }\n    }\n  }\n}\n",
  "sourcePath": "/Users/manjindersingh/Desktop/Prototype/contracts/MyContract.sol",
  "compiler": {
    "name": "solc",
    "version": "0.8.19+commit.7dd6d404.Emscripten.clang"
  },
  "schemaVersion": "3.4.13",
  "updatedAt": "2023-04-19T04:45:01.755Z",
  "networkType": "ethereum",
  "devdoc": {
    "kind": "dev",
    "methods": {},
    "version": 1
  },
  "userdoc": {
    "kind": "user",
    "methods": {},
    "version": 1
  }
}